:10000000008B0120792E0000AD2C0000752E000021
:10001000752E0000752E0000752E0000752E000054
:10002000000000000000000000000000752E00002D
:10003000752E000000000000752E0000752E0000D7
:1000400035150000A9140000C51500000D160000AC
:100050008123000035150000A9140000C51500001B
:100060000D160000391C0000CD1D0000ED1E000023
:10007000CD1F0000812300002D2A00000348044BFF
:10008000834202D0034B03B118477047E0010020C0
:10009000E001002000000000064B0749C91A891042
:1000A00048BF0131491003D0044B0BB10148184738
:1000B000704700BFE0010020E001002000000000C8
:1000C00010B5064C237843B9FFF7D8FF044B13B1A2
:1000D0000448AFF300800123237010BD000200200C
:1000E00000000000FCA3000008B5054B1BB105494A
:1000F0000548AFF30080BDE80840FFF7CDBF00BF63
:100100000000000004020020FCA300002DE9F04FD5
:100110000024544BADF5197D03F59C319A1C0392D4
:10012000803133F8022F8B421444FAD14E4804F048
:100130007DFC42F228324D494D4804F00FFC4D49F8
:100140004D4FA1FB0414C4F3CF3529463B4649F675
:1001500040424A4804F002FC42F22831434803F08E
:1001600083FB002866D049F6404650214FF4FA53ED
:10017000434A019704A8009604F060FC1D2104A8DE
:1001800003F0E0FB002866D04FF000084446C1466B
:100190003C4F47F6FF7E039B03EB090018ABA3EB34
:1001A00009011FFA80FB04F580794B1C0288824606
:1001B000521B1201BA42B8BF3A467245A8BF7246F6
:1001C000C2F3072C01F8142003F814C00134A14530
:1001D00000F1020001D0B442E8D1CBF10201514458
:1001E00018A889B203F0AEFB824668B308F1010893
:1001F00018F00F0F04D0B4420DD04FEA4409C8E7FD
:100200004FEA4409434649461B4A1F4804F0A6FBEF
:10021000B442BED105E0184A434611461A4804F0DC
:100220009DFB4146194804F099FB50460DF5197D98
:10023000BDE8F08F164804F0F9FB4FF0000A504675
:100240000DF5197DBDE8F08F4146124804F086FB9C
:1002500003F0E2FBF1E7104804F0E8FB03F0DCFBFD
:10026000EBE700BF96040020087B0000247B000021
:10027000347B00005917B7D180380100447B00005F
:100280007C7B00000080FFFFCC7B0000F07B000047
:10029000647B0000B07B0000947B00000379022B9C
:1002A00002D10122014B1A70704700BF204101208A
:1002B0002DE9F047B2F1000982B019DD8A46002528
:1002C000DFF83C800C4C0D4F01EB09061AF9013B9D
:1002D0000122384601A9019300F0C2FEC8F80000CF
:1002E00000B100BE2378002BFCD056452570EDD11F
:1002F000484602B0BDE8F08720410120B04501200A
:10030000244101200379042B06D0022B00D0704732
:1003100001220E4B1A70704740F2FE320C490B88D6
:1003200093420FD84FF0000C10B4846809485A1C4F
:10033000C45493B200F803C00B8007485DF8044B27
:1003400001F0F0BE044801F0EDBE00BF193D0120F0
:100350001C3D0120203D0120E045012003793BB9EF
:100360000123044A044912880B700AB1034A13702E
:10037000704700BF1C3D0120183D01201A3D01209F
:100380000122034B1A7008B102791A70704700BF3E
:10039000040000200379DBB910B521490A78012A4D
:1003A000D0B216D0042812D11E4C1F4B22681B68F5
:1003B0009A4217D21D4B22681D4833F8121002F0E2
:1003C0008BF81C4B1860F0B923680133236010BD13
:1003D000704749F63F42184C246894420ED8174B98
:1003E000187010BD4FF40061114802F075F8114B00
:1003F000186070B90122124B1A7010BD02220F480A
:1004000003700A7010BDBC210E4B0F4A0F4802F05A
:1004100019FCC6210B4B0C4A0C4802F013FC00BF20
:10042000940400208C04002028020020980400205E
:10043000B446012024410120900400201E02002027
:1004400021020020187C0000148400002C7C000095
:100450000122014B1A7070471D0200202DE9F04F58
:10046000A049A1488DB001F0ADFBA04C206030B197
:1004700040F23F219E4B9F4A9F4802F0E3FB054616
:10048000012600F05DFD00F057FC284600F0C0FB9F
:10049000284600F0C9FB00F04FFC102329462846EF
:1004A000964A009600F026FD102328461946944AE5
:1004B000009600F01FFD102320212846914A009647
:1004C00000F018FD00F0CAFB32464FF486718E48EA
:1004D00001F0EAF84FF47A71084602F0BBFB8B4951
:1004E0008B4800F007FE206030B140F25121804B74
:1004F000804A814802F0A6FB864804F097FA8649B4
:10050000864801F08DFE206078B9844801F004FE31
:100510008349824801F028FE206068B140F25E21E4
:10052000734B744A744802F08DFB4FF41671704B94
:10053000704A714802F086FB4FF47A71304602F03F
:1005400089FB7849784800F0D5FD2060A0B9774D47
:100550002B7823B903F06EFA00282DD02E70744941
:10056000744801F05BFF206068B140F27E21604B6F
:10057000604A614802F066FB40F263215C4B5D4AD1
:100580005D4802F05FFB6B4801F0AEFF206030B1C8
:1005900040F28321564B574A574802F053FB6649B5
:1005A000664801F03DFE206078B140F28D21504B4D
:1005B000504A514802F046FB614804F037FA4FF4C4
:1005C0007A71084602F046FBF9E75C4801F0A4FDA9
:1005D0005A4801F0ADFD4FF47A71142002F03AFB55
:1005E0005849594802F088F9206030B140F296210C
:1005F0003F4B404A404802F025FB5449524802F024
:100600004DF8206030B140F29921394B394A3A48CF
:1006100002F018FB4C4801F0DBFF4D4804F006FAED
:10062000DFF84881DFF8E090DFF844A1DFF844B15B
:10063000002148460DF1190201F024F89DF8193007
:1006400033B99AF8003003F0FF05002B00F0538116
:1006500098F800304BB1002349F63F4288F800304B
:10066000DBF80010914240F296819AF80030022B9C
:100670001CD09AF80030032B7ED0364D2B78002BFF
:10068000D6D000232D482B7001F040FD0546206098
:10069000002840F0AC8103F0BFF92F488AF80050E1
:1006A00004F0C4F92D4804F0C1F9C1E7234801F072
:1006B0002DFD2060002840F0A181DBF800102848C3
:1006C00004F04CF9FFF722FD0546002800F04981AF
:1006D000244804F0ABF9244804F0A8F903238AF86D
:1006E0000030C6E7F09E0000304601202441012082
:1006F000187C0000088400002C7C0000407C000076
:10070000507C0000587C0000A84501202C9E000071
:10071000B0450120607C0000609E0000E0450120A3
:1007200040548900BC9E0000004601201C020020AD
:10073000B49F0000B4460120209F000070460120B5
:10074000707C0000909F0000904601207C9F00007C
:10075000987C000021020020287F0000347D0000EA
:10076000C47C0000E87C0000007D00001E02002028
:100770009404002090040020002660223146AD48F9
:10078000CDE90766CDE909660B9604F0D9FAAA48C7
:1007900004F04CF96021A94AA64802F0EFFF0028B6
:1007A00000F01981A349A64804F0D8F80BAB0293D6
:1007B0000AAB019309AB0093A2499E4808AB07AA74
:1007C00004F090F9052840F00A81079BB3F5FA5F21
:1007D00040F0D280089B102B40F0CE80099B012B6B
:1007E00040F0CA8049F63F430A9A511E994200F2EE
:1007F000C3800B9BB3EB420F40F0BE801946924A78
:10080000924D1670924F934A2E6016703E60059678
:10081000914E059B994240F2FF80059B8E48C91A74
:10082000B1F5007F28BF4FF40071002389B2ADF805
:100830001A300DF11A0242F2107302F095FD0028F1
:1008400000F06A81BDF81A00002800F061817E4B3B
:100850001A78E2B149F63F432A689A4200F2C3800F
:100860007C4B32781B7843EA02231BB22A68002BA8
:1008700002F10101B8BF0F3329601B11774903F55D
:10088000006321F8123000236F4A1370012249F6E9
:100890003F4C049018E02968614500F2A480F15CA7
:1008A000B35C6E4843EA01231BB2002B2968B8BF32
:1008B0000F331B1101F1010E03F500630232C5F87D
:1008C00000E020F8113092B20499531C8B42E2D31D
:1008D0009142084605D9B35C5E4A137001235A4A17
:1008E0001370059B0B9A034419465D48059304F069
:1008F00035F80B998DE74FF47A71142002F0AAF9BC
:10090000294648460DF1190200F0BCFE9DF8191069
:1009100000297FF49DAE534BCBF800101960524B69
:10092000524A4E4888F80010197004F009FA5048ED
:1009300004F07CF801234F488AF8003001F0F2FB04
:100940002060002861D14B4801F0E6FB20600028C0
:100950003FF47EAE40F2BF21474B484A484802F080
:1009600071F9484804F062F803F056F846488AF8EE
:10097000005004F05BF87CE6444804F057F8444823
:1009800004F054F803F048F800233F488AF8003098
:1009900004F04CF871E6344D3E48ADF82C302B7025
:1009A00001F016FE2B78002BFCD00B2139480BAA46
:1009B00001F014FE2060002840F09180DBF8002058
:1009C000DBF80030BDF82C100133CBF80030234B9E
:1009D00023F8121049E6304804F028F8CFE72F48F2
:1009E00004F024F8CBE72E4804F020F8C7E740F2E3
:1009F0002231214B214A224802F024F940F2E3211E
:100A00001D4B1E4A1E4802F01DF94FF42F711A4B60
:100A10001A4A1B4802F016F90B4B1E78002E73D1B0
:100A20002B680A9A93423FD029681E4803F096FF2C
:100A3000A5E700BF2C020020547D0000C0D40100B7
:100A4000947D0000A87D00002002002024020020E8
:100A5000280200201F0200208C02002098040020A1
:100A60005C7E00008C0400201D0200208038010004
:100A7000A47C000070460120187C0000088400005F
:100A80002C7C00001C7D0000347D0000E47D000013
:100A9000087F000090460120747D0000C47D0000A6
:100AA000407E0000A07E00002B681D483B60396836
:100AB00003F054FF04231B4A1B4D1C4816602E7084
:100AC0008AF8003001F02EFB2060B0B9174801F021
:100AD00023FB206050B9164803F0A8FFCEE540F292
:100AE000D721144B144A154802F0ACF840F20D31EE
:100AF000104B114A114802F0A5F840F20A310D4B93
:100B00000D4A0E4802F09EF80D4803F08FFF36E7BD
:100B10000C4803F08BFF32E70B4803F087FF2EE70A
:100B2000C87E00008C0400202102002070460120B5
:100B3000EC7E0000187C0000088400002C7C000083
:100B40007C7E0000247E0000087E0000022800D089
:100B500070470249024800F081BE00BFC49F0000F8
:100B6000A845012070B5224E04460D4601223C21C5
:100B7000204882B000F07CFE336863BBADF80430DF
:100B80002DBB012302221B4801A98DF8054000F06E
:100B90001DFF306028BB184D184C2A78032A10D04E
:100BA000236809E00121642002F054F823682A78C0
:100BB000013B032A236004D0002BF3DC012A00D17F
:100BC00000BE01230E4A2B70226002B070BD40238C
:100BD0008DF80430D5E766210A4B0B4A0B4802F02A
:100BE00031F86F21074B084A084802F02BF800BF84
:100BF0002441012030460120040000200000002094
:100C0000A0860100187C000034840000447F0000AE
:100C100030B1012800D070470021A720FFF7A2BF04
:100C20000146A620FFF79EBF10B5044660B101281B
:100C300000D010BD0021C020FFF794FFBDE8104098
:100C40000021A120FFF78EBF0146C820FFF78AFFD1
:100C50002146BDE81040A020FFF784BF2DE9F047F2
:100C60002D4E402334464FF00108A2B02B4D0836DC
:100C70008DF80430C4F1B00738190021C0B2FFF775
:100C800071FF00210846FFF76DFF00211020FFF7DC
:100C900069FF002301AA14F833100133802B02F8F6
:100CA000011FF8D101223C21284600F0E1FD01237B
:100CB0008122284601A900F089FE38BBDFF8709038
:100CC000DFF870A099F80020032A14D0DAF8003079
:100CD0000CE00121642001F0BDFFDAF8003099F842
:100CE0000020013B032ACAF8003004D0002BF0DCBE
:100CF000012A00D100BE0A4B0134B44289F80080B9
:100D0000CAF80030B8D122B0BDE8F087BE21054B4B
:100D1000054A064801F096FF28410120304601208F
:100D2000A0860100187C000024840000447F00009D
:100D3000040000200000002000200A4BA3F108025C
:100D400003F5806143F8080C08338B42FAD1002187
:100D5000054B02F20C4243F8081C08339A42FAD1C0
:100D6000FFF77CBF3041012034410120012310B541
:100D70000C4C01F0070E04EBC00C03FA0EF3C9088B
:100D80001CF801C0C000DBB22AB143EA0C0C0444D9
:100D900004F801C010BD2CEA030C044404F801C09F
:100DA00010BD00BF284101202DE9F04F203A89B045
:100DB000082B9DF84880D4B24FEA530C00F08A808B
:100DC00013F0070218BF012202EBD30212FB0CF250
:100DD00012F0FF0A4AD0434A434F02EB041909EBD1
:100DE0000A02DFF80CE10392404A04EB440504EBED
:100DF000C40402EB850A07EB450B0EEB840EA3F14E
:100E00000802059376464B46D146DA468346CDE93D
:100E100006C00492049A102A28D8DFE802F05E2760
:100E200027274F2727274A272727272727272A002B
:100E3000059A0BF10100082ADDE900312C465FFA22
:100E400080FB03F101030AF1010A06F1010609F131
:100E5000010939D0079A0698ABEB0205854208BF15
:100E60009346039A08BF21469342D3D109B0BDE807
:100E7000F08F01F10802357802922C46CDE900315D
:100E80000D469DF808700AE0424629465846FFF78D
:100E90006DFF691CCDB2BD424FEA5404C8D0E307D0
:100EA000F2D4B8FA88F2294658465209FFF75EFF95
:100EB000EFE701F108021D780292DEE701F1080276
:100EC00099F800500292D8E7039A9342CED09AF84C
:100ED0000050D2E74FF0060A7DE701F108020292C6
:100EE000F5E700BFA0910000049C0000909700006F
:100EF000448400002DE9F043154612789946A2F18A
:100F0000200383B05E2B9DF8287015D804460E464A
:100F10004FEA590820464B4631460097FFF744FFF9
:100F200015F8012FB9F1080FA2F120000CBF06340B
:100F300044445E28E4B2EDD903B0BDE8F08300BFBD
:100F400008B50021AE20FFF70DFE00210846FFF78F
:100F500009FE00211020FFF705FE0021B020FFF759
:100F600001FE00218120FFF7FDFD00215F20FFF73A
:100F7000F9FD00212020FFF7F5FD00210220FFF7F9
:100F8000F1FD0021A120FFF7EDFD0021C020FFF7BA
:100F9000E9FD0021A420FFF7E5FD0021A620FFF7D1
:100FA000E1FD0021A820FFF7DDFD00213F20FFF734
:100FB000D9FD0021D320FFF7D5FD00210846FFF71A
:100FC000D1FD0021D520FFF7CDFD00218020FFF7C6
:100FD000C9FD0021D920FFF7C5FD00212220FFF720
:100FE000C1FD0021DA20FFF7BDFD00211020FFF731
:100FF000B9FD0021DB20FFF7B5FD00213020FFF710
:10100000B1FD00218D20FFF7ADFD00217220FFF71B
:10101000A9FD00200D4BA3F1080203F5806143F800
:10102000080C08338B42FAD10021094B02F20C4222
:1010300043F8081C08339A42FAD1FFF70FFEBDE8C7
:1010400008400021AF20FFF78DBD00BF30410120D7
:101050003441012008B5FFF701FA002008BD00BFA8
:1010600010B4046AA37803F07B03A3708378046A46
:1010700003F00303D21A0B44C0E90332A37843F010
:101080008003A370837803F00303022B06D0036A66
:101090000A780020DA705DF8044B70470B88026A0A
:1010A00043F47E43D38100205DF8044B704700BFBA
:1010B000F0B5846A85B005460F4694466E46B4B1D5
:1010C00094E80F0086E80F00EB6920461B78A760C4
:1010D000236084F804C0EB6AE3606B6A9847AC6AEB
:1010E0001CB196E80F0084E80F0005B0F0BD34464F
:1010F000EAE700BF012203460878824012F0060F9B
:1011000005D0CA6952681278120700F1CB8100221B
:101110004FF0010C00F580002DE9F04100F58C50F6
:101120000002C3E907101A704D6998785D628D69F5
:101130006CF30100C3E90A2598704878D44C9042BA
:1011400014BF65460225987865F30100987091F9FF
:101150000B5091F80AE0680905F01F0620300CFAE0
:1011600006F644F82060BFF34F8FBFF36F8FC94876
:1011700005F1C00650F8267062F3104740F826705B
:1011800050F82660C44E4FEA0E1E67195FFA8EFEB5
:1011900087F800E346F8253091F9055091F804E00E
:1011A0006F0905F01F0820370CFA08F844F827806B
:1011B000BFF34F8FBFF36F8F05F1C00750F8278043
:1011C00062F3104840F8278050F827704FEA0E1E4F
:1011D00067195FFA8EFE87F800E346F8253091F92B
:1011E000075091F806E06F0905F01F0820370CFA48
:1011F00008F844F82780BFF34F8FBFF36F8F05F1D6
:10120000C00750F8278062F3104840F8278050F854
:1012100027704FEA0E1E67195FFA8EFE87F800E30B
:1012200046F8253091F9095091F808E06F0905F06A
:101230001F0820370CFA08F844F82780BFF34F8FB7
:10124000BFF36F8F05F1C00750F8278062F3104895
:1012500040F8278050F827004FEA0E10C0B22C4407
:1012600084F8000346F82530EFF310868CF31088DD
:101270004FF000450C788948E540446824EA0504AD
:101280004460406886F31088186A8270186A027198
:10129000186A4272186A8272186AC272186A4283A5
:1012A00040F2192208780CFA00FC1CEA020F02D066
:1012B00040201A6AD0740625012240F219201C6AC7
:1012C00025770C78A240024240F0CA80CA7848785C
:1012D0008C78D200032842EA041200F0D58000285E
:1012E0000CBFE220F2201C6AD2B222701A6A9071FE
:1012F000CC69227B082A00F0C380186A520002F0F1
:101300000202427300256278A078D201400100F009
:101310002000D2B20243186A0572207802380128F0
:10132000186A40F2A280D2B2C27160681A6A8478E8
:1013300054704578147865F301041470C47894747B
:10134000D479007804F0A30400F05C002043D0714D
:101350000020C3E90300C3E90500DC694D4A94F9A4
:101360000540CD6904F1C00152F8216095F800C034
:1013700060F3104642F821600CF0030C52F8211083
:10138000BFF35F8F4FF0010E6109890004F01F0465
:1013900001F1604101F561410EFA04F4C1F88041A8
:1013A0000C60D96991F90B4004F1C00152F8216039
:1013B00060F3104642F8216052F82110BFF35F8FAE
:1013C0006109890004F01F0401F160410EFA04F480
:1013D00001F56141C1F880410C60D96991F907407C
:1013E00004F1C00152F8216060F3104642F8216018
:1013F00052F82110BFF35F8F6109890004F01F04C8
:1014000001F160410EFA04F401F56141C1F8804137
:101410000C60D96991F9091001F1C00452F82460F7
:1014200060F3104642F8246052F82420BFF35F8F27
:101430004A09920001F01F0102F160420EFA01F127
:1014400002F56142C2F8801111601A6A4CF0700C0A
:1014500082F802C06989124A19815A60BDE8F08198
:101460004FF478401A6A908230E7FF254570207863
:10147000022808BF42F01002186AD2B2C27167E7B0
:101480000A201A6A50733DE7F22042F040022AE730
:1014900000E100E0006000400047012000400840FB
:1014A0005549435303207047EFF30383103B1F4A12
:1014B0005BB203F1C00152F8210020F4803042F801
:1014C000210052F821201A4A52F82300C3691B69EF
:1014D00083B1036903B17047026A0021937803F076
:1014E0007F0343F004039370436AC160C3B1802259
:1014F000FFF7DEBD0369026A002BEED08378C16876
:1015000003F00303022B0CD00B78D3708278D0E960
:10151000031302F003029B1A1144C0E90313D9E735
:1015200070470B8843F47E43D381EFE700600040AF
:101530000047012010B582B0EFF30383103B1F4A30
:101540005BB203F1C00152F8210020F4803042F870
:10155000210052F821201A4A52F82340A27802F0C2
:101560000303022B236A0CBF198A5979A3690CBFA4
:10157000C1F30801C9B2019143B9636AB3B104224E
:10158000204602B0BDE81040FFF792BD02F0030212
:1015900001A9606903F053FCD4E90521A37803F0A5
:1015A00003031A44C91AC4E9052109B102B010BDE8
:1015B000636A002BFAD00122E2E700BF006000401E
:1015C0000047012010B5EFF303830E4A103B5CB2D5
:1015D00052F82400026A937803F07B039370436A05
:1015E0001BB102220021FFF763FD074A04F1C0038B
:1015F00052F8231021F4803142F8231052F823309E
:1016000010BD00BF004701200060004010B5EFF39F
:1016100003831A4A103B5CB252F82400837803F02B
:101620000303022B036A0CBF198A597993F804C08B
:101630000CBFC1F30801C9B21CF0100F0CF0380246
:1016400006D093F81CC01CF0010F08BF42F0400206
:1016500093F804C00CF0C70C83F804C0436A0BB1C4
:10166000FFF726FD064A04F1C00352F8231021F4C7
:10167000803142F8231052F8233010BD004701207A
:101680000060004010B40B0A064C1B0153FA81F1B4
:1016900054F821300020C3F340035DF8044B13706D
:1016A000704700BF000808400120CBB2984080B2CC
:1016B00002B900040B0A5B0103F1804303F5002328
:1016C00098600020704700BF2DE9F84F0388DBB118
:1016D00082464FF0000B4FF00109DFF8D080002464
:1016E000304D4FEACB07DAF8043035F8022BD91920
:1016F000898891420AD00134032CF4D1BAF8003021
:101700000BF1010B5B45EAD8BDE8F88FDB5909FA0C
:1017100004F603F0B853B3F1807FF6B298F8BB3407
:1017200013D0334231D1204A04F1200612F816308A
:10173000DB09E0D012F81630012123F08003C82025
:1017400002F8163001F086FAD5E7334211D0164A76
:1017500004F1200112F81130DB09CCD112F811305C
:10176000C82043F0800302F81130012101F072FA21
:10177000C1E7012001F034FB98F8BB34012033436A
:1017800088F8BB3401F0FCFAE1E7012001F028FB06
:1017900098F8BB34012023EA060388F8BB3401F033
:1017A000EFFAC0E750A000000030084000E0014020
:1017B000F8B50646FFF788FFEFF31082012383F3A5
:1017C0001088234F3B681BB92249CB704023CB7054
:1017D0003B6801333B6082F31088338823B30021D8
:1017E0001D4D08E01B01134445F8234032880131A8
:1017F0008BB29A4218D9736853F8314003EBC10297
:101800009288E0034FEA1223D2B2EBD502EB031029
:1018100055F820E024F4803C2EF4803E45F820E08A
:101820001B0145F820C0DEE7EFF31082012383F3AC
:1018300010883B6813B13B68013B3B603B681BB9B8
:1018400080200449CB70C87082F31088F8BD00BFB7
:10185000FC460120000D08400008084008B5034B75
:1018600003600846FFF7A4FF002008BD54524F5004
:101870000346002059601A72704700BF30B5836B71
:1018800083B004460A466D46A3B193E8030085E899
:101890000300E16B1A7119601846636B9847A36BDC
:1018A0001BB195E8030083E80300002384F82B3084
:1018B00003B030BD2B46ECE730B5424B83B01B6A1A
:1018C00001690193019B03F00F230193019A019D8C
:1018D0000B7C90F82C4094B9C2F30322DBB2A2EB4C
:1018E000156293409B0804D1082003B030BD013B32
:1018F000FAD04A78D209FAD1B323CB710169002317
:1019000090F82620846980F82720026880F82B3020
:10191000C46180F82D3080F8283080F82E300362C2
:1019200080F82F3080F83030546A227894F801E043
:10193000012A14BF4FF0040C4FF0050C627912011C
:1019400042EA4E0294F806E042EACE124CEA020263
:10195000D2B2CA7001690A7942F010020A710169B3
:101960000A7963F3C3020A7101690A7963F3041205
:101970000A710269E179137961F3C713137102697E
:10198000537943F001035371036893F90F30002B2F
:1019900007DB012203F01F040B495B09A24041F859
:1019A0002320BF220369DA7190F82C302BB1002379
:1019B00080F82C30002003B030BD022203695A7039
:1019C000F8E700BF00E0014000E100E090F808C047
:1019D000C0E90512BCF1010F80F82A3008D10022BD
:1019E000436880F826C05B0080F8243080F825200A
:1019F000002380F82930FFF75FBF00BF2DE9F043D7
:101A00004FF01F085F27DF260569DFF8B49185F8DE
:101A1000008005694FF0000C2F7005694FF0B30E80
:101A20002E700568634A6E6A05693679624C46F025
:101A3000E0062E740568614B6E6A0569F67846F01B
:101A4000E0066E7405686E6A0569B678360106F0C0
:101A5000700646F00806AE7005686E6A056937784C
:101A6000012F777814BF0426052646EA4706F6B20A
:101A7000EE7005686E6805694E4514BF7726F72637
:101A80006E71056985F806C0056985F807E04E7B2B
:101A900091F9115036015719F6B287F8006344F8EE
:101AA000250005F1C00653F826706CF3104743F883
:101AB000267053F82660BFF35F8F4FF0010E6E095A
:101AC000B60005EA080506F1604606F561460EFA1D
:101AD00005F5C6F8805135604E7B91F90F503601FF
:101AE0005719F6B287F8006344F8250005F1C006DF
:101AF00053F826706CF3104743F8267053F82660AD
:101B0000BFF35F8F6E09B60005EA080506F160466F
:101B10000EFA05F506F56146C6F8805135604E7B34
:101B200091F9105036015719F6B287F8006344F85E
:101B3000250005F1C00653F826706CF3104743F8F2
:101B4000267053F82660BFF35F8F6E09B60005EA72
:101B5000080506F160460EFA05F506F56146C6F879
:101B6000805135604D7B91F90E102D010A44EDB284
:101B700082F8005344F8210001F1C00253F82240DA
:101B80006CF3104443F8224053F82230BFF35F8FC8
:101B90004B099B0001EA080103F160430EFA01F1D1
:101BA00003F56143C3F8801119609F2203691A701D
:101BB000BDE8F08300E100E0004701200060004044
:101BC00040420F0070B500250A78016002F58002DE
:101BD00002F51F62120202618A6842600A7B027289
:101BE000CA6942630A6AC0E90E52EFF3108C0122FF
:101BF00082F310880B78C3F109039A400C4B5E689E
:101C000026EA02025A605B688CF31088FFF7F6FE42
:101C1000C0E90755074B80F82950456180F82A50E4
:101C2000856180F82B50C36080F82C50284670BD29
:101C3000004008404349495210B582B0EFF3038396
:101C4000103B5F4A5BB2C03352F8231021F480315D
:101C500042F8231052F82330EFF30383594A103B24
:101C60005BB252F8234094F82D305BBBA369022B82
:101C700022D9E369012B0ED12269137943F01003B5
:101C800013712269137943F00803137122691379E0
:101C900023F01003137123685B6ADB79002B3ED1BC
:101CA00001222369DB7CDBB28DF807309DF8073019
:101CB00084F82D2002B010BD2269137943F040034F
:101CC0001371D6E7E369002BF4D02268526AD27907
:101CD000FAB9032B17D0022B26D0012B34D022695E
:101CE000236AD17C6269D154D4E907320132013BC5
:101CF000C4E90732002BDDD121690A7963F386122A
:101D00000A7102B010BD2269137943F040031371C8
:101D1000E5E705212046FFF7B1FDE369D9E7052195
:101D20002046FFF7ABFDBBE72269137943F01003B0
:101D300013712269137943F008031371226913792F
:101D400023F010031371CAE794F82A2072B32268B3
:101D50001D4892F90F20510902F01F0203FA02F206
:101D6000203140F82120BFF34F8FBFF36F8F042045
:101D70002169CA7942F08002CA7121690A7942F068
:101D800010020A7121690A7922F008020A71216998
:101D90000A7922F010020A712269507021694A7989
:101DA00022F001024A7184F82C3098E70821226958
:101DB000537A03F0F7035372236959708FE700BF1A
:101DC000006000400047012000E100E010B5EFF3A3
:101DD0000383103B424A5BB2C03352F8231021F414
:101DE000803142F8231052F82330EFF303833D4A49
:101DF000103B5BB252F8234094F82730002B3FD1C0
:101E000094F82930002B3AD123685B6ADB792BB137
:101E100094F82B3013B9236A002B5BD1E369216955
:101E2000002B40D1CB79C02223F08003CB712169F4
:101E300001E0013A02D0CB79DB09FAD12368284AC4
:101E400093F91030C03352F8231021F4803142F856
:101E5000231052F82330236893F91030002B09DB4C
:101E600001215A09204803F01F03603201FA03F3ED
:101E700040F822302269D37943F04003D37110BD7A
:101E800094F82630032B1CD094F8242023699A74EC
:101E900094F8282094F827300132013B84F8282058
:101EA00084F8273010BD236A6269D35C8B74D4E94F
:101EB00007320132013BC4E90732002BDFD121692F
:101EC000B0E794F82830022BDED194F83030002BA4
:101ED000DAD110BD05212046FFF7D0FC9EE700BFF8
:101EE000006000400047012000E100E038B5EFF35A
:101EF0000383334A103B5BB252F8234023685B6A8A
:101F0000DB79002B48D194F829301BB194F82730A5
:101F1000012B4FD0E369DBB12169C023CA7922F0DC
:101F20004002CA71216901E0013B02D0CA79520620
:101F3000FAD4EFF30383103B224A5BB2C03352F86A
:101F4000231021F4803142F8231052F8233038BD99
:101F500094F82A202AB3012022681B4D92F90F2001
:101F6000510902F01F02203100FA02F245F8212047
:101F7000BFF34F8FBFF36F8F2169CA7942F08002A0
:101F8000CA7104212269517021694A7963F3000200
:101F90004A7184F82C00BFE705212046FFF76EFC4C
:101FA000B1E708212269537A03F0F70353722369DA
:101FB0005970B1E794F83030002BADD0AAE700BFDC
:101FC000004701200060004000E100E038B5EFF379
:101FD00003834C4A103B5BB252F823000269537AE8
:101FE000517ADC0601F0E00151725FFA83FC03F0E4
:101FF00003022BD503695978490647D400240125EB
:1020000080F82B50DC710168FFF7F8FCB32290F8E0
:10201000263080F82C4080F82830C46180F82A40AF
:102020000369846929460462DA71FFF727FCEFF33C
:102030000383103B344A5BB2C03352F8231021F4BF
:10204000803142F8231052F8233038BD002A56D18F
:102050001CF0080F0ED090F82B30002B3ED1B3228D
:1020600090F829100369C1F10301C9B2DA71FFF7D1
:1020700005FCDCE790F82C200CF004032AB3002BBD
:10208000D5D090F82B30002B37D1E8E7002AB5D116
:102090005A78C2F380115206DAD5082280F82B1044
:1020A0005A70036801695A6A94791378527943EA3D
:1020B000C41343EA021343F00203DBB2CB7002699C
:1020C000537943F001035371B1E7002BAFD003689C
:1020D0005B6ADB79002BAAD00421C8E70023B32177
:1020E00090F826508469026980F82C3080F82850D6
:1020F0000462C36180F82A30D1710121B7E7036916
:102100007CE700BF0047012000600040034600203C
:10211000D3E902239360704703460020D3E90223EA
:102120005360704703460020D3E90223D360704711
:10213000034670B45A689E68D2690020D2E901143F
:1021400044F00045D46875619D6844F00044AC617A
:102150009C6841F000412161146999684C629B6858
:1021600052699A6270BC70478368013999668368C6
:10217000DA6AD20703D45966D0E90232DA60002065
:10218000704700BF70B5836984B004468C4616461C
:1021900001AD9BB193E8070085E8070083F804C010
:1021A0009E60E26918461A6063699847A3691BB18B
:1021B00095E8070083E8070004B070BD2B46EDE703
:1021C000002800DA704710B400F160430901124C96
:1021D000C9B203F5614383F80013104B44F8202083
:1021E00000F1C00253F8221021F4803143F822108C
:1021F00053F82230BFF35F8F012243099B0000F0A8
:102200001F0003F1604303F561438240C3F880215E
:102210001A605DF8044B70470047012000600040E1
:102220004FF0010CF8B500260B46097C43600CFA10
:1022300001F111F00F0FC1600CBF6146314601740E
:10224000197C4C4A04460A44120282605A6942616F
:102250009A69C0E90662DD69EFF310878CF3108894
:102260004FF00040197C444AC840116921EA00013E
:102270001161126987F310884FF42541A26811603B
:10228000A268D662A268D663A2689664187800260F
:1022900003284FF00040197AA7684FEAC15108BFE0
:1022A00041F480315A68F962A168013A0861A16875
:1022B0004861A1688861A1684E62A1688E62A168C8
:1022C000A869C861A168E8690862A1688A66A1680E
:1022D0004A666268A86BD26992F83010CE0705D5BD
:1022E000916AA6680139F16492F83010890703D524
:1022F000D26AA168013A0A650022A1688A63A168CE
:10230000C1F88820AA6B3AB995F8212095F82010D9
:10231000520742EA4132104395F830200326002A42
:1023200014BF4FF4A0074FF4AA070121A268176455
:10233000A2685063A2681663A2681163D4E90221FF
:10234000D160597C93F912002246FFF739FF2246EB
:1023500095F8221095F92400FFF732FF95F9250032
:10236000224695F82310FFF72BFF044B0020236033
:10237000F8BD00BF90164000004008405450470090
:10238000F0B5EFF30382103A214C51B201F1C00CC9
:1023900054F82C3023F4803344F82C308B0003F1B4
:1023A000804303F5C043D3F800031A4850F82100D6
:1023B000456895F800E0BEF1010F08D043692BB1E4
:1023C000BDE8F04000221146FFF7DCBEF0BD00255D
:1023D000D0E90267B760866802F0FF02B5648668DC
:1023E000F5648668356554F82C6065F3104644F84A
:1023F0002C60D3F80033BFF35F8F074C4B0902F01A
:102400001F020EFA02F2603344F82320D6E700BF21
:10241000006000400047012000E100E030B42B4A9A
:102420000346C2600A7802F0010242700A7852083C
:10243000EFF3108C012080F31088254CC2F11402B8
:10244000E56800FA02F225EA0202E260E2688CF333
:102450001088EFF3108480F31088587800282FD16B
:10246000DD682A7960F386122A7184F3108848683F
:10247000DC68C278D201D2B26271DA689279B2B9FC
:102480004A78A2B1EFF3108C012585F31088104A29
:10249000D46824F48034D460D2688CF3108880240B
:1024A000DA6802F5805282F8C050DA689471407898
:1024B000084A187209785A601970002030BC7047B9
:1024C000D868027922F080020271CEE7001017402E
:1024D00000400840004341440346DA685B7800202E
:1024E00022F81310704700BF38B5037A0446002B5A
:1024F0003ED00021C368427833F8125023F81210FE
:10250000ADB2EFF31080012383F310886278002AC4
:1025100043D0E268137961F3C7131371E268137F44
:1025200043F080031377E268137A43F08003137259
:10253000E268137943F08003137180F3108801215E
:10254000042000F087FBEFF31081012383F3108850
:102550006278002A36D1E068037F62F3861303773E
:1025600081F31088E3686278002023F8125038BDA8
:10257000EFF31083012282F310884278C1683AB1E8
:102580000A7942F080020A7183F31088002038BD76
:102590000A7942F040020A71F6E7E1680B7962F3CA
:1025A00086130B71E268137F43F040031377E268F0
:1025B000137A43F040031372E268137943F0400347
:1025C0001371BAE7E268137F23F080031377C7E73C
:1025D00003461A689B8A00201380704703461B68D5
:1025E000103133F81130002013807047F0B5C769FF
:1025F000054689B017B3BE466C468C46BEE80F0050
:102600003E460FC49EE80F0084E80F00BCE80F00B0
:102610000FC69CE80F008EE80F00AB69384698475C
:10262000EB694BB19C46EE46BEE80F00ACE80F00EC
:102630009EE80F008CE80F0009B0F0BD0F46ECE7F4
:1026400010B5024688B0EFF303831249103B5BB22A
:1026500051F82300EFF30383103B0F495BB2C03303
:1026600051F8234024F4803441F8234051F82330BA
:10267000002143688DF802201C88026A8369ADF846
:10268000004001928DF8081013B16946FFF7AEFFC4
:1026900008B010BD00470120006000402DE9F04760
:1026A000D1E9018E764B41F2360C1A680346086870
:1026B0005F681C681FFA80F97F69A4F804901C68A1
:1026C0001FFA88F9A4F814901C681FFA8EF9A4F870
:1026D00008901C6820F0C0404FEA1049A4F806900A
:1026E0001C6828F0C0484FEA1848A4F816801C68F7
:1026F0002EF0C04E4FEA1E4E624EA4F80AE0366A33
:10270000614DC6F3026802FA08F2C6F3021E22FA0D
:102710000EF2A5FB025292090CFB02F2DFF878A13F
:10272000AAFB0242D1E90045920C0132072A45EA90
:10273000040538BF072215F0005420D0EFF3108CA9
:10274000012484F31088514CE66826F48006E66084
:10275000E4688CF3108890264D4C26701C68D6B225
:1027600084F8DE600C688E6814F0005F0CBF4FF4D4
:1027700080644FF48074B60048BF44F001046E00DA
:102780000FD51D68D2B285F8DF200A6855008A6827
:102790004CBF44F4007444F40064520048BF44F059
:1027A00002041A68A4B25482CA68002A66D0148946
:1027B00026052ED42546AD050DD5D67C957C354312
:1027C0001E6886F8A6501D68D689A5F8A860158AE7
:1027D0001A68A2F8AA501A68A2F890401A680C8ADF
:1027E000A2F880403A796AB1B0FA80F01C68228879
:1027F00092B222F01F021F32121A92B22280988ADD
:1028000002439A82234A0020DA600A681A61BDE80E
:10281000F0871D68A5F890401D685689A5F89C6052
:102820001D689689A5F89E6015681E681FFA85FCCC
:10283000A6F894C04FEA154C1E682CF4C04C1FFA41
:102840008CFCA6F896C01E68C5F3417586F89250B8
:1028500055681E681FFA85FCA6F898C04FEA154C0B
:102860001E682CF4C04C1FFA8CFCA6F89AC01E6897
:10287000C5F3417586F8935015899CE71446AAE77D
:102880004847012000E00140D34D6210004008405D
:1028900000300F404344415283DE1B4310B400F12B
:1028A000604C134C0901134BC9B20CF5614C8CF808
:1028B000001300F1C00144F8202053F8212022F435
:1028C000803243F8212053F82130BFF35F8F01227B
:1028D00043099B0000F01F0003F1604303F56143CF
:1028E0008240C3F880211A605DF8044B704700BF36
:1028F000004701200060004000222DE9F8434E69A6
:102900004160CB68044683610B690D46C0E907232B
:102910000B885B0203F1804303F5B8130360486939
:102920008B7882785B03002A6BD143F45071037972
:10293000002B6CD189B2A1828278C77812022B79E0
:1029400007F03F0702F47C523A43EF78DB0343EA97
:102950004703477890F800E043EA4713EFF3108904
:102960004FF0010C8CF31088B5F800802D4FC8F1A2
:1029700010080CFA08FCD7F80C8028EA0C0CC7F8F1
:102980000CC0FF6889F3108847F6FF573940276865
:1029900092B2398021689BB20A822268D38123686F
:1029A00083F80CE083792268A3F10103B3FA83F37F
:1029B0005B0982F8D03095F90600002803DB224637
:1029C000697AFFF76BFF95F90700002803DB2246C1
:1029D000A97AFFF763FF96F90700002803DB224678
:1029E000717AFFF75BFF96F90800002803DB2246A7
:1029F000B17AFFF753FF00200B4B2061A360BDE8C5
:102A0000F8833F2A077943F4107108D117B141F0D8
:102A100080018FE743F4024141F040018AE7002F33
:102A200088D0F4E700400840434441520020FFF7BB
:102A300007BE00BF064B074993F826001A6A51F8F3
:102A40002030C2F302620449D3400B60704700BFDC
:102A500000E00140E001002048470120704700BF2E
:102A6000F8B54AF2035001233F49404AA1F8FE035A
:102A7000A2F80431B2F804319BB2002BFAD14FF026
:102A8000010C4FF4004120250920394C394F3A4EB2
:102A900067603A4F344BE760A2F800C1384A2660BD
:102AA000A1602161626193F82620196A54F82220FE
:102AB000344EC1F30261CA40326083F8135483F884
:102AC000A20093F880241AB993F88134990746D06C
:102AD000254D95F88034002B36D00022224B83F808
:102AE000812483F8802400231F4981F8323091F833
:102AF0003C301A07FBD543F6013000231A4A0885FB
:102B000081F82A3092F83C309B06FBD50120052342
:102B10001649F12581F81C011B49116282F8263003
:102B200092F82630106A54F82310C0F30260C140B6
:102B300031600024F0204FF42541144B1D731C72AA
:102B40001873A2F8FE13F8BD0121C82085F880147F
:102B500000F080F895F88034012BFBD1BDE74FF4ED
:102B60007A70FFF77BFFBEE700E0014000C0014044
:102B7000E001002000127A00002D3101001BB70097
:102B80000095BA0A48470120211202210020004086
:102B900038B50025284C0121C82084F8285000F0C1
:102BA00059F884F8245094F82430002BFBD194F881
:102BB0002430214943F0020384F8243091F8243072
:102BC000C3F340009B07F9D41B4A81F8220092F816
:102BD000223003F0FF00002BF9D192F84030164963
:102BE00060F3C71382F8403091F84030DB09FBD125
:102BF00091F84200104A63F3C71081F8420092F83E
:102C00004230DB09FBD192F844000B4963F3C71053
:102C100082F8440091F84430C3F3C014DB09F9D1C1
:102C2000012000F0DDF8054B012083F8BB44BDE82E
:102C3000384000F0A5B800BF0030084000E0014077
:102C4000704700BF00BEFEE7A0F101000028FBD1E5
:102C5000704700BF4FF47A7310B400FB01F1114CC0
:102C6000114A2468B2FBF4F2A1FB03043CB9B0FBA7
:102C7000F2F0800860B15DF8044BFFF7E5BF920009
:102C8000B1FBF2F1A1FB03132BB908460028F2D1E6
:102C90005DF8044B70474FF0FF3C5DF8044B604615
:102CA000FFF7D2BF4847012000CA9A3B70B5002405
:102CB0000B4B0C4EB3F82021B3F84051ADB2154088
:102CC00025FA04F3DB0704D556F82430E0B203B14B
:102CD000984701340E2CF3D1014BA3F8305170BD4D
:102CE00000600040C446012070B5032084B000F0AD
:102CF00077F800266FF0FF014FF0FF301C4C1D4BA2
:102D0000224699644FF0010E3346CDE9010004F1EB
:102D10001E05039032F8021F0EFA03FC013311B1B5
:102D2000012620EA0C00AA42F4D1F6B10190124B20
:102D3000104A1067C3F88002029903205167C3F854
:102D4000841203999167C3F8881200F019F80023E0
:102D50000A4834F8022F03F1C00101330AB140F8E8
:102D60002120A542F5D104B070BD4FF0FF30DEE761
:102D70002EA000000080004000E100E00060004064
:102D8000EFF31081012383F31088124B33F81020E6
:102D900092B22AB133F81020013A92B223F81020EF
:102DA00033F810309BB293B910B40B4A0B4CB2F805
:102DB000FE3334F810009BB243F4254323EA0003AA
:102DC000A2F8FE3381F310885DF8044B704781F35D
:102DD000108870473C47012000E0014058A00000E7
:102DE00030B4EFF31081012383F310880E4A32F8D8
:102DF00010309BB26BB90D4C0D4DB4F8FE3335F865
:102E000010C09BB243EA0C0343F425439BB2A4F8E1
:102E1000FE3332F8103001339BB222F8103081F3C8
:102E2000108830BC704700BF3C47012000E00140E3
:102E300058A0000008B50C4A0346106840B103339F
:102E40000A4923F0030303448B4205D8136008BDED
:102E5000074908461160F2E701F0DAFF0C22034649
:102E60001A604FF0FF3008BD44470120006B01207D
:102E7000004B012000BE704708B500F003F8FEF7D4
:102E8000E9F8FEE74FF4700270B52B4B2B4CC3F8FA
:102E9000882000209C60FDF759FEFFF7E1FD01202E
:102EA000FDF754FE2368A3F5005383F30A882448F2
:102EB000244A0021121A01F043FF2348234A2449DF
:102EC000121A01F0BCFF234D234B5B1B002B07DDC7
:102ED00000249E1055F8043B01349847A642F9DCC3
:102EE000FFF7A8FDFFF754FE0320FFF779FF4FF629
:102EF000FF720024194B03201A825A829A82DA82C6
:102F00001A835A839A83DA83FFF73AFF0320FFF785
:102F100067FF134B03205C609C60DC601C61FFF763
:102F20002FFF0220FDF712FEFFF7DEFE2046BDE870
:102F30007040FFF785BE00BF00ED00E0000000001C
:102F400000020020FC4A012000000020E0010020D7
:102F500028A40000D8010020DC010020000D08405A
:102F600000000E402DE9F047002480463C493D4BCF
:102F70004FF4806282B00C803B482146DFF810A1FC
:102F8000C8F800401C7001F0DBFE102237493848B9
:102F90008AF80040FEF764F800285CD19AF8003007
:102FA00040F6B83413B10AE0013C50D04FF47A71C6
:102FB0000120FFF74FFE9AF80030002BF4D00023D9
:102FC0004FF47A762B4F284DDFF8C8908AF80030FE
:102FD00015E02949284601F0BBFE284980BB284658
:102FE00001F0B6FE264958BB284601F0B1FE38BBB9
:102FF0004FF47A710120FFF72DFE013E23D03946B0
:10300000284601F0A5FE0028E3D0037B303B092BC6
:10301000DFD8002300F10C040A22204601A9019305
:1030200000F078FF019B82469C42D2D04946284658
:1030300001F08EFE0028CCD00120C8F800A003E0EB
:10304000104801F0F3FC002002B0BDE8F0870E4804
:1030500001F0ECFCF7E701460C4801F07FFCF2E7D9
:103060001C3D01201A3D0120203D012090A00000C0
:103070000046012080A000008C7F0000947F0000AB
:103080009C7F0000B07F0000747F0000547F000030
:10309000193D0120887F00002DE9F047B2B30646B4
:1030A0000F4690460025234CDFF8A090DFF8A0A043
:1030B0003EB196F9003023B13146204601F048FE7A
:1030C000A0BB3FB197F9003023B13946204601F04B
:1030D0003FFE58BB4946204601F03AFEE8B951464A
:1030E000204601F035FEC0B92046134901F030FEFC
:1030F00098B92046114901F02BFE70B94FF47A714E
:1031000001200135FFF7A6FDA845D1D10C4B094A96
:1031100019880C4801F022FC05E0094B054A198882
:10312000094801F01BFC0020BDE8F0870120BDE844
:10313000F08700BF203D0120D47F00009C7F00006D
:103140001C3D0120FC7F0000DC7F00008C7F000024
:10315000947F000000284CD02DE9F047002405465C
:103160009946254B0F461C80244B21469046244807
:103170004FF480621C7001F0E3FD284601F06CFE04
:1031800083B20BB9002023E0DFF888A01A46294655
:103190001C488AF80040FDF763FF28BB9AF800300E
:1031A00040F6B83413B10AE0013C13D04FF47A7101
:1031B0000120FFF74FFD9AF80060002EF4D00023A5
:1031C0004A46414638468AF80030FFF765FF30B17D
:1031D000BDE8F0870C4801F029FC0020F8E72946FB
:1031E0000A4801F0BBFBCDE70146094801F0B6FBF8
:1031F000C8E70020704700BF1C3D01201A3D012098
:10320000203D012000460120747F00002080000046
:10321000547F0000193D012000232DE9F041804634
:103220002F4C82B04FF480620D462E481946238001
:10323000019301F085FD404601F00EFE4146024635
:103240002948FDF70DFF0446404601F005FE014602
:10325000264801F083FB002C3CD1019B244AAB4261
:1032600014702BD2234E1F4C234F14E039462046B6
:1032700001F06EFD2149F0B9204601F069FDD0B999
:103280004FF47A710120FFF7E5FC019B01330193B4
:10329000019BAB4212D23146204601F059FD002875
:1032A000E4D0174801F0C2FB019B0120AB4209D2D8
:1032B00002B0BDE8F081134801F0B8FB019B00208B
:1032C000AB42F5D34146104801F048FB002002B064
:1032D000BDE8F08141460D4801F040FBF6E700BF34
:1032E0001C3D0120203D01200046012038800000C7
:1032F0001A3D0120887F00008C7F0000947F000031
:1033000060800000808000009C8000004080000001
:1033100038B50F4C0F4D104B2A4620460F4901F08F
:10332000C1FB21460E4801F019FB29460D4801F06A
:1033300015FB43F698212046FFF76EFF0346204613
:103340001C464FF40072002101F0FAFC204638BD03
:10335000B04701202081000014810000248100007A
:10336000F48000003C8100002DE9F04F93B0009202
:10337000002800F0A6801D460B461146002A00F0EA
:10338000A0805A1EB2F5007F80F09B804FF0000AAB
:10339000DFF80093DFF800B3B9F80070BBF80080E5
:1033A000A1F800A0474560D3064607A80193FFF7A0
:1033B000D9FD019B18B1079A002A40F086804FF092
:1033C000000BA9490393A94B019181F800B04FF478
:1033D00080625946A6480293A3F800B001F0B0FC01
:1033E000039B002D00F0BD80CDE90363DDE90146BC
:1033F000D846DFF8A8929E4FDFF8A4A21AE0514603
:10340000384601F0A5FC002858D13846994901F00A
:103410009FFC002852D1BBF57A7F3DD00BF1010B08
:103420004FF47A71012008F10108FFF713FC4545BC
:1034300000F097804946384601F08AFC0028DED02B
:1034400007A8FFF78FFD18B1079A002A40F0828085
:103450004FF0000B4FF4806238465946A6F800B092
:1034600084F800B001F06CFCC9E7A8EB0705ADB229
:103470009D4228BF1D46804E2A46F1192F44BFB2F7
:1034800001F0DDFCB8455BD9A9F800700120009B74
:103490001D8013B0BDE8F08F07A8FFF763FD10B1E2
:1034A000079A002A56D100214FF4806238463180B5
:1034B00021704FF0010B01F043FCB1E76F4801F0C0
:1034C000B5FA002013B0BDE8F08F9A424DD9674A93
:1034D0000292654A01920027009C2821684A08A8A8
:1034E0002780039301F0AAFA8146019B4FF4806282
:1034F0001F70029B39465E48DFF8A8811F8001F0EB
:103500001FFC4A465F4808A988F80070FDF7A8FD2F
:10351000002840F00B8198F80020039B62BB40F626
:10352000B8371C464FF47A710120FFF793FB98F8E7
:10353000003003BB013FF5D1534801F077FAC0E7F3
:10354000304660225146A9F800A0ABF800A001F077
:10355000F7FB9BE7DDE903639342019428BF93B235
:10356000B9E74A4801F062FAABE7404B029393B2E5
:103570003D4A0192AFE72346002288F80020002D43
:1035800000F0CE800195914690461546CDE9046342
:10359000039210E0039BC2464344B34240F29E8034
:1035A0004FF47A710120FFF755FB019B09F10109E6
:1035B0004B4500F0B580029B1E88002DEAD10C2EF1
:1035C00040F29280DFF8A8A02C46D346304F03E0AB
:1035D000B34200F28E8014460D225846394601F05F
:1035E00085FB0BF1010B04F10E03621C0028EFD1E7
:1035F00004F10D0292B29642D2D91D4904F10C0396
:1036000082460B440BE001EB4E0ABAF5007F1FFA2D
:103610008CF200F2818096424FF00100C0D913F87D
:10362000014F0AEB8A0EA4F13001CFB2092F02F14B
:10363000010CE8D92C2C7ED1013293B2039328B12E
:10364000039B1FFA8AF85344B34201D90546A7E702
:10365000039B03EB080080B2864243D9831DB3422B
:1036600040D8441CA4B224E01A3D01201C3D012096
:10367000203D01209C7F00005047012084810000F4
:10368000B081000000460120747F00005C810000D2
:1036900070A000004E4701204C47012074810000BB
:1036A0007C810000193D0120A31D9E42204619D3B4
:1036B0001446294B06222949184401F017FB621CC5
:1036C0000028F1D1DDE904639845424644463ED8DE
:1036D000002A34D1009B01201C80F3E6052E98B20D
:1036E000BAD85DE701255BE7042E7FF659AFDFF816
:1036F00068A0002402E09E42FFF452AF0AEB0400EF
:103700000522174901F0F2FAA31D01340028F2D175
:10371000144801F08BF9D4E6134801F087F9D0E69C
:10372000029B1248198801F019F9CAE601461048AF
:1037300001F014F9C5E60F4801F078F9C1E60399E4
:10374000054B52463046194401F079FBC2E70A485E
:1037500001F06CF9B5E600BF203D012060A000003B
:1037600068A0000028820000E8810000C4810000F9
:10377000547F000008820000488200002DE9F047D5
:103780009AB000284ED001294CD900230646914614
:103790001C46984601398DB203704B4660210DF1ED
:1037A000060202A8ADF80680FFF7DEFD07460028F6
:1037B00038D0BDF806A0BAF1000F2AD000210DF1D3
:1037C000080E301907E0AC4291B29CB227D28A456C
:1037D00000F801CB1DD01EF801CB4A1CBCF10A0F2A
:1037E00004F10103EFD14CB1331913F9012C0D2A67
:1037F00012BF1E4604F1FF3416FA84F600250AF1C2
:10380000FF34641AA4B2357074B938461AB0BDE8F2
:10381000F087A542C1D80E4801F008F902E00D4832
:1038200001F004F90027F0E7602C03D90A4801F001
:10383000FDF8F7E702AB0131224613FA81F10748A0
:1038400001F0FDFA064A074B15801C80DDE700BF3A
:10385000B08200009082000070820000504701207A
:103860004E4701204C470120002850D070B590F9F8
:1038700000300446A2B013B9002022B070BD00256C
:103880000E462449244B60220D80244829461D8081
:1038900001F056FA4FF4FA63214A22492248FFF711
:1038A00059FC4FF4FA632A461E492048FFF752FCA0
:1038B0000028E1D04FF4FA632A461A491C48FFF762
:1038C00049FC0028D8D04FF4FA632A461549194814
:1038D000FFF740FC0028CFD04FF4FA632A46114985
:1038E0001548FFF737FC0028C6D023468021134A2D
:1038F00002A8009601F0A2F801387E28BCD843F651
:1039000098230F4A074902A8FFF724FCB5E70020D7
:10391000704700BF4E4701204C470120504701200F
:103920007C810000887F0000CC820000DC820000E7
:10393000EC820000FC8200000C8300002083000069
:103940003C830000002849D0F0B50C4689B000291E
:1039500039D040F2B453994232D80B46234A202141
:103960000546684601F06AF840F6B833002268461A
:103970001F49FFF7EFFB30B300271E491E4B4FF4E2
:1039800080620F801D4839461D4E1F7001F0D8F926
:10399000224629461B483770FDF762FB00BB33788F
:1039A00041F2883493B94FF47A710120FFF752F94C
:1039B00033785BB9013CF6D1134801F037F802E0E7
:1039C000124800F0CBFF002009B0F0BD00214FF4F9
:1039D000FA520F483170FFF75FFBF5E700207047A0
:1039E00001460C4800F0BAFFEDE700BF6C83000011
:1039F0007C8300001C3D01201A3D0120203D012058
:103A0000193D012000460120747F00005083000012
:103A100080830000547F000040F6B833024A034917
:103A20000348FFF797BB00BF7C810000887F000040
:103A3000CC82000010B5194800F0F8FF184C194B63
:103A40000FCB07C41848238000F0F0FFA4F10C014D
:103A5000164800F083FF42F21071A4F10C00FFF74A
:103A6000DBFB0346A4F10C001C464FF4007200215E
:103A700001F066F974B1FFF74BFC044620B10C4825
:103A800000F0D4FF204610BD0A4800F0CFFF00240C
:103A9000204610BD084800F0C9FFF8E78883000001
:103AA000B0470120C8800000D8800000F4800000EA
:103AB000EC830000CC830000AC83000081F0004167
:103AC00002E000BF83F0004330B54FEA41044FEA03
:103AD000430594EA050F08BF90EA020F1FBF54EA9E
:103AE000000C55EA020C7FEA645C7FEA655C00F03A
:103AF000E2804FEA5454D4EB5555B8BF6D420CDD0B
:103B00002C4480EA020281EA030382EA000083EA8D
:103B1000010180EA020281EA0303362D88BF30BD2D
:103B200011F0004F4FEA01314FF4801C4CEA113183
:103B300002D0404261EB410113F0004F4FEA0333E2
:103B40004CEA133302D0524263EB430394EA050F6D
:103B500000F0A780A4F10104D5F1200E0DDB02FADC
:103B60000EFC22FA05F2801841F1000103FA0EF270
:103B7000801843FA05F359410EE0A5F120050EF136
:103B8000200E012A03FA0EFC28BF4CF0020C43FA67
:103B900005F3C01851EBE37101F0004507D54FF074
:103BA000000EDCF1000C7EEB00006EEB0101B1F5C4
:103BB000801F1BD3B1F5001F0CD349085FEA30000A
:103BC0004FEA3C0C04F101044FEA445212F5800F15
:103BD00080F09A80BCF1004F08BF5FEA500C50F1B2
:103BE000000041EB045141EA050130BD5FEA4C0C95
:103BF000404141EB0101013C28BFB1F5801FE9D2F2
:103C000091F0000F04BF01460020B1FA81F308BF14
:103C10002033A3F10B03B3F120020CDA0C3208DDE0
:103C200002F1140CC2F10C0201FA0CF021FA02F1BB
:103C30000CE002F11402D8BFC2F1200C01FA02F12B
:103C400020FA0CFCDCBF41EA0C019040E41AA2BF50
:103C500001EB0451294330BD6FEA04041F3C1CDA18
:103C60000C340EDC04F11404C4F1200220FA04F038
:103C700001FA02F340EA030021FA04F345EA0301E2
:103C800030BDC4F10C04C4F1200220FA02F001FAA4
:103C900004F340EA0300294630BD21FA04F0294626
:103CA00030BD94F0000F83F4801306BF81F48011BF
:103CB0000134013D4EE77FEA645C18BF7FEA655C32
:103CC00029D094EA050F08BF90EA020F05D054EA04
:103CD000000C04BF1946104630BD91EA030F1EBF09
:103CE0000021002030BD5FEA545C05D1400049410D
:103CF00028BF41F0004130BD14F580043CBF01F500
:103D0000801130BD01F0004545F0FE4141F47001E5
:103D10004FF0000030BD7FEA645C1ABF19461046C0
:103D20007FEA655C1CBF0B46024650EA013406BFC1
:103D300052EA033591EA030F41F4002130BD00BF80
:103D400090F0000F04BF0021704730B54FF480643D
:103D500004F132044FF000054FF0000150E700BFBE
:103D600090F0000F04BF0021704730B54FF480641D
:103D700004F1320410F0004548BF40424FF000010A
:103D80003EE700BF42004FEAE2014FEA31014FEA4D
:103D900002701FBF12F07F4393F07F4F81F060519C
:103DA000704732F07F4208BF704793F07F4F04BFE7
:103DB00041F40021704730B54FF4607401F00045C4
:103DC00021F000411CE700BF50EA010208BF704724
:103DD00030B54FF000050AE050EA010208BF704715
:103DE00030B511F0004502D5404261EB41014FF47E
:103DF000806404F132045FEA915C3FF4D8AE4FF086
:103E000003025FEADC0C18BF03325FEADC0C18BF68
:103E1000033202EBDC02C2F1200300FA03FC20FAB9
:103E200002F001FA03FE40EA0E0021FA02F1144406
:103E3000BDE600BF2DE9F04386460D46334E2846C9
:103E400015F8014B375D17F00807F8D12D2C10D16C
:103E50002C780127851C33F0100015D1302C0DD1A2
:103E6000287800F0DF00582808D16C78023510233C
:103E70000AE02B2C04BF2C78851CECE7002BF6D134
:103E8000302C14BF0A2308234FF0FF380026B8FB5C
:103E9000F3F803FB08F930466FEA0909A4F1300C86
:103EA000BCF1090F10D86446A3421EDDB6F1FF3FF6
:103EB00007D0804516D301D1A14513DB00FB034099
:103EC000012615F8014BE9E7A4F1410CBCF1190FEB
:103ED00001D8373CE8E7A4F1610CBCF1190F04D814
:103EE000573CE1E74FF0FF36EBE7731C06D1222386
:103EF0003046CEF8003032B9BDE8F08307B1404219
:103F0000002AF9D006B1691E1160F5E7A2A00000F1
:103F1000FFF790BF13460A46014602480068FFF7C4
:103F200089BF00BF1C0000202DE9FF4757EC106B34
:103F3000002F0C4619463B46B4BF07F1004300234F
:103F40009146BFBF32461F462D231646DDF830A0EE
:103F50000B700D9B23F02008B8F1460F05D0B8F187
:103F6000450F00D10134022100E0032103AB2246BA
:103F7000019302AB47EC106B0093534601F004F839
:103F8000B8F1470F054619D119F0010F0ED000EB1B
:103F90000409002200233046394603F0E9FC08B149
:103FA000CDF80C903022039B4B451ED3039B284633
:103FB0000E9A5B1B136004B0BDE8F087B8F1460FA2
:103FC00000EB0409E5D10378302B0AD1002200234D
:103FD0003046394603F0CCFC18B9C4F10104CAF8E4
:103FE0000040DAF800309944D3E7591C03911A7065
:103FF000D9E7F7B500290270BABF49422D232B2318
:104000000929437028DD0DF107030A271D461A46CA
:10401000013BB1FBF7F607FB1614303402F8014CF4
:104020000C463146632CF2DC3031941E03F8011C3F
:10403000411C2346AB420AD30DF109039B1AAC4243
:1040400088BF002302330344181A03B0F0BD13F8ED
:10405000016B01F8016FEDE7302330318370031DF0
:10406000C170F1E72DE9F04F8DB00C4616461F46A2
:10407000DDF85880054600F081FE03681846049379
:1040800000F0EAFE002305900A93D8F8003094F877
:1040900018A00733D4F800B023F0070303F1080297
:1040A000C8F800204FF0FF32D3E9008929F000431F
:1040B000CDF8188007939D4BDDE90601C4E912890C
:1040C00003F088FC70BB4FF0FF32984BDDE906012E
:1040D00003F062FC30BB002200234046494603F057
:1040E00051FC10B12D2384F84330914A914BBAF121
:1040F000470F8CBF9046984603234FF00009236179
:104100002BF00403236033460BAA21462846009770
:1041100000F0D2F9013040F08D804FF0FF300DB04B
:10412000BDE8F08F42464B464046494603F052FCFC
:1041300040B14B46804A002BBCBF2D2384F843304E
:104140007E4BD4E70AF0DF02636806925A1C3BD12B
:10415000062363604BF480620023284622600393A9
:104160000AABCDE901A309AB49EC108B00930DF12B
:1041700023036168FFF7D8FE069B80460999472B09
:1041800029D1C81C02DB6368994241DDAAF1020A09
:104190005FFA8AFA0139524604F150000991FFF79B
:1041A00028FF0A9A81461318012A236102DC22683B
:1041B000D20701D5013323619DF82330002BA2D013
:1041C0002D2384F843309EE7069A472AC2D1002B5C
:1041D000C0D10123BDE7BAF1650FDBD9BAF1660F93
:1041E00018D1002963680BDD216113B92268D0075B
:1041F00002D501330B4423614FF00009A165DBE7D1
:1042000013B92268D20701D50233F4E70123F2E79C
:104210004FF0670A0A9B994205DB23682161D807A2
:10422000EAD54B1CE7E70029D4BFC1F10202012205
:104230001344E0E723685A0507D423694246314610
:104240002846B84701302BD167E7BAF1650F40F235
:10425000DD8000220023D4E9120103F089FB00284D
:1042600033D00123364A31462846B84701303FF45F
:1042700054AFDDE90938434502DB2368D8070FD581
:1042800031462846DDE90423B84701303FF445AF05
:104290004FF0000908F1FF3804F11A0AC84509DC9B
:1042A00023689B0700F10381E0680B9B9842B8BF2D
:1042B000184634E70123524631462846B8470130B4
:1042C0003FF42BAF09F10109E8E7099B002B39DC2A
:1042D00001231B4A31462846B84701303FF41DAF41
:1042E000DDE9093959EA030302D12368D907D7D593
:1042F00031462846DDE90423B84701303FF40DAFCD
:104300004FF0000A04F11A0B099B5B42534501DC94
:104310004B4693E701235A4631462846B8470130B9
:104320003FF4FBAE0AF1010AEEE700BFFFFFEF7FAB
:10433000A6A10000A2A10000AEA10000AAA1000059
:10434000E3A20000A36DDDF828A05345A8BF5346A3
:10435000002B994636DC4FF0000B29EAE97904F18D
:104360001A02A36D0693A3EB09035B4531DC099B9D
:104370009A453ADC2368DA0737D4099BAAEB03098C
:10438000069BAAEB03039945A8BF9946B9F1000F14
:1043900033DC4FF0000829EAE97904F11A0B099B94
:1043A000AAEB0303A3EB090343457FF779AF01238E
:1043B0005A4631462846B84701303FF4AEAE08F1C0
:1043C0000108ECE7424631462846B8470130C2D1E1
:1043D000A3E60123314628460692B84701303FF450
:1043E0009CAE0BF1010B069ABBE7DDE904233146D5
:1043F0002846B8470130C0D18FE6069A4B46314671
:1044000028464244B8470130C3D186E6DDF828A0EB
:10441000BAF1010F01DCDB0736D5012342463146F4
:104420002846B84701303FF478AE31462846DDE9EA
:104430000423B84701303FF470AE002200230AF194
:10444000FF3AD4E9120103F093FAC0B9534608F1D8
:10445000010231462846B84701300CD15DE6012300
:104460005A4631462846B84701303FF456AE08F167
:104470000108D045F3DB4B4604F15002DFE64FF074
:10448000000804F11A0BF4E701234246E1E7012397
:104490004A4631462846B84701303FF43EAE08F15F
:1044A0000108E3680B995B1A4345F0DCFCE64FF02A
:1044B000000804F11909F4E72DE9F047164698467B
:1044C0008A6807460B690C46DDF820909342B8BF16
:1044D0001346336091F843200AB1013333602368F7
:1044E000990642BF336802333360256815F006052C
:1044F00006D104F1190AE36832689B1AAB422BDC3F
:1045000094F843302268003B18BF0123920630D450
:1045100004F1430241463846C847013023D023689E
:104520001A3454F80A2C03F00603042B0ABF54F87B
:104530000E5C002533684FF0000608BFED1A54F8F2
:10454000123C08BF25EAE5759342C4BF9B1AED18DB
:10455000B5421AD1002008E00123524641463846B0
:10456000C847013003D14FF0FF30BDE8F087013577
:10457000C1E7E1185A1C30200233224481F843007D
:1045800094F8451082F84310C2E7012322464146C1
:104590003846C8470130E6D00136D9E72DE9FF4754
:1045A0000F7E914680460C46782F9A460C9E01F16C
:1045B000430207D8622F0AD8002F00F0D180582F6D
:1045C00000F0B88004F1420684F842703AE0A7F1A6
:1045D0006303152BF6D801A151F823F035460000EE
:1045E00049460000C5450000C5450000C54500001E
:1045F000C545000049460000C5450000C54500000E
:10460000C5450000C545000047470000734600004F
:1046100001470000C5450000C5450000694700008E
:10462000C545000073460000C5450000C5450000B3
:104630000947000033681A1D1B68326004F1420606
:1046400084F8423001239CE033682068191D3160F2
:10465000060601D51D6803E04506FBD5B3F90050F9
:10466000002D03DA2D236D4284F8433058480A2385
:1046700011E021683368080653F8045B02D4490648
:1046800048BFADB26F2F3360514814BF0A230823CF
:10469000002184F843106668002EA66005DB2168BF
:1046A0002E4321F0040121604BD01646B5FBF3F1F7
:1046B00003FB1157C75D06F8017D2F460D46BB422F
:1046C000F4D9082B0BD12368DF0708D5236961686B
:1046D0009942DEBF302306F8013C06F1FF36921BFB
:1046E00022614B4603AA21464046CDF800A0FFF7C1
:1046F000E3FE01304AD14FF0FF3004B0BDE8F0874F
:10470000236843F02003236078273248236884F825
:1047100045701F06316851F8045B02D45F0648BF3C
:10472000ADB23160D90744BF43F0200323601DB10F
:104730001023ADE72648E9E7236823F02003236030
:10474000F6E71646BDE733682568181D61693060D5
:104750002E061B6801D5196002E06806FBD519809A
:10476000002316462361BCE7336800211A1D32601E
:104770001E686268304600F054FB08B1801B606020
:1047800063682361002384F84330AAE72369324633
:1047900049464046D0470130ADD023689B0713D42B
:1047A000E068039B9842B8BF1846A6E7012332464B
:1047B00049464046D04701309DD00135E368039912
:1047C0005B1AAB42F2DCEBE7002504F11906F5E7D2
:1047D000B2A10000C3A10000002310B5044683600D
:1047E000818119464366C28108228361C0E9003392
:1047F000C0E904335C3000F0A3FA0D4B246263621D
:104800000C4BA3620C4BE3620C4B23630C4B9C429E
:1048100006D003F16802944202D0D0339C4205D105
:1048200004F15800BDE8104000F0F8BA10BD00BF18
:10483000394B00005F4B0000974B0000BB4B000062
:10484000B0490120024A0349034800F069B800BF9B
:10485000100000207D7000002000002041680C4BFB
:10486000994210B5044601D002F008FCA168094B3A
:10487000994202D0204602F001FCE168064B9942C1
:1048800004D02046BDE8104002F0F8BB10BD00BFC8
:10489000B0490120184A0120804A012010B50B4B75
:1048A00004210B4C0B4A20461A600022FFF794FFAC
:1048B00004F1680001220921FFF78EFF04F1D00006
:1048C00002221221BDE81040FFF786BFE84A01200E
:1048D000B049012045480000014800F0A0BA00BFDF
:1048E000F14A0120014800F09BBA00BFF14A0120C3
:1048F00010B50446FFF7F0FF236A1BB1BDE8104076
:10490000FFF7F0BF044B2362044B1B68002BF5D16B
:10491000FFF7C4FFF2E700BF5D480000E84A01204E
:104920002DE9F8430746884614460026D4E9019548
:10493000B9F1010905D52468002CF7D13046BDE84E
:10494000F883AB89012B07D9B5F90E30013303D0B9
:1049500029463846C04706436835E9E70FB407B52E
:10496000064904AB086853F8042B8168019302F0F0
:104970009DF803B05DF804EB04B070471C00002004
:10498000036A70B505460E4684680BB9FFF7B0FFA1
:10499000636EDB0705D4A389980502D4A06D00F0EF
:1049A0003EFAA389190702D52369002B35D1214688
:1049B000284600F045F980B34FF0FF35636EDA0703
:1049C00005D4A3899B0502D4A06D00F029FA2846DE
:1049D00070BD002B04DAA2699A4217DC0A2915D0AF
:1049E00023685A1C22601970A36816F8011F013B46
:1049F000A3600029EDD1002B11DA22460A212846B6
:104A000000F0DFF80130D7D00A25D7E72246284644
:104A100000F0D7F80130E7D1CEE7013EE4E72368A4
:104A20005A1C22600A221A70EEE7FFFF024B014671
:104A30001868FFF7A5BF00BF1C0000200CB4184B7E
:104A400030B50C1E9DB01D6808DA8B234FF0FF3087
:104A50002B601DB0BDE8304002B070474FF40273C8
:104A60000290069002A9ADF8143014BF04F1FF3390
:104A70002346209A2846049307934FF6FF73ADF818
:104A8000163021AB019301F01BFD431CBCBF8B23EF
:104A90002B60002CDDD0029B00221A70D9E700BFEA
:104AA0001C0000200EB400B59CB06FF000411DAB9F
:104AB00002900690079104910848094953F8042B85
:104AC000059102A90068019301F0FAFC029B002203
:104AD0001A701CB05DF804EB03B070471C00002096
:104AE0000802FFFF0EB430B59CB04FF401721FAC4A
:104AF000ADF81420029054F8045B069000F0ACF975
:104B00000B4B2A46039002A90B93002307900F93A7
:104B100014934FF6FF730748ADF81630234600682C
:104B2000019401F023FE1CB0BDE8304003B0704793
:104B30005B4B00001C00002010B50C46B1F90E10B4
:104B400000F042F90028ABBF636DA3891B1823F462
:104B50008053ACBF6365A38110BD002070472DE971
:104B6000F0411F468B8905460C46DB05164605D5E8
:104B700002230022B1F90E1000F014F9A389324685
:104B8000B4F90E10284623F48053A3813B46BDE8B8
:104B9000F04100F02BB910B50C46B1F90E1000F041
:104BA00001F9431CA38915BF606523F4805343F4C6
:104BB0008053A38118BFA38110BDB1F90E1000F07E
:104BC000E1B8F8B50E461446054618B1036A0BB9AC
:104BD000FFF78EFEA369A360A3891A0701D5236995
:104BE00043B92146284600F02BF818B14FF0FF37A3
:104BF0003846F8BD2368F6B222693746981A6369C9
:104C0000834205DC2146284602F038FA0028EDD11F
:104C1000A368013BA36023685A1C22601E70431CDA
:104C200062699A4204D0A389DB07E1D50A2EDFD15D
:104C30002146284602F022FA0028D9D0D6E7FFFF05
:104C400038B5294B05460C46186818B1036A0BB9EC
:104C5000FFF74EFEB4F90C30190722D4DA0607D458
:104C600009222A6043F040034FF0FF30A38133E074
:104C7000580712D5616B41B104F14403994202D047
:104C8000284600F03FFF00236363A38923F0240339
:104C9000A3810023636023692360A38943F0080391
:104CA000A38123694BB9A38903F42073B3F5007F73
:104CB00003D02146284602F02EFAB4F90C3013F046
:104CC00001020AD00022A26062695242A2612269F6
:104CD00042B913F08000C5D138BD990758BF626949
:104CE000A260F4E70020F7E71C000020013902442D
:104CF00010B5904201D1002005E0037811F8014F72
:104D0000A34201D0181B10BD0130F2E7884210B554
:104D100001EB020402D98442234607D8431EA14274
:104D200008D011F8012B03F8012FF8E702440146DF
:104D30008A4200D110BD13F8014D02F8014DF7E78A
:104D400002440346934200D1704703F8011BF9E780
:104D50000A7870B56AB970BD9A4209D10C46054609
:104D600014F8013F002BF6D015F8016F9E42F7D0E2
:104D700001300378002BEFD11846ECE7004870476C
:104D80005C01002038B50023054D044608462B6021
:104D900002F05EFE431C02D12B6803B1236038BDD4
:104DA000EC4A012038B50446064D0846114600225B
:104DB0002A601A4602F064FE431C02D12B6803B13C
:104DC000236038BDEC4A012038B50446064D08463C
:104DD000114600222A601A4602F05AFE431C02D1F4
:104DE0002B6803B1236038BDEC4A012038B5044676
:104DF000064D0846114600222A601A46FBF758FA6B
:104E0000431C02D12B6803B1236038BDEC4A01205A
:104E1000014B1868704700BF1C00002070477047A6
:104E20007047C9B20346024410B59342184601D1F7
:104E3000002003E0047801338C42F6D110BD0A440F
:104E4000431E914200D1704710B511F8014B9142B9
:104E500003F8014FF9D110BD034613F8012B002AC6
:104E6000FBD1181A013870472DE9F74F036907463F
:104E70000C69A342C0F28380013C00F1140501F1EA
:104E80001408A30055F8242008EB8409009305EBCF
:104E90008403019358F8243001339A42B2FBF3F6AD
:104EA00031D34FF0000AC446AE46D3465CF8043B0B
:104EB00098B2E1454FEA134306FB00A04FEA1042C7
:104EC00080B206FB0323DEF8002092B24FEA134AB9
:104ED000A2EB00029BB2DEF800005A44C3EB22436F
:104EE00092B203EB104342EA03424FEA234B4EF8DF
:104EF000042BDBD2009BEB582BB9019B043B9D425A
:104F00001A4630D33C61384601F072F9002826DB9E
:104F10002946002058F8042BD1F800C01FFA82FE61
:104F2000C1451FFA8CF34FEA1242A3EB0E03034470
:104F3000C2EB23429BB202EB1C4243EA02434FEA1C
:104F4000224041F8043BE5D255F8242005EB8403C8
:104F500022B9043B9D421A460BD33C6101363046D0
:104F600003B0BDE8F08F1268043B002ACAD1013CAF
:104F7000C5E71268043B002AEFD1013CEAE70020B4
:104F8000EEE7FFFFFFFFFFFF2DE9F04FC76999B084
:104F90008346229E09910E92139355EC104B8DED92
:104FA000040B7FB9102000F0F7FD0246CBF81C007F
:104FB00020B9A74BEF21A748FDF744FEC0E90177D0
:104FC0000760C760DBF81C30196859B15A680123C3
:104FD000584693404A608B6000F0D4FEDBF81C30EA
:104FE00000221A602B1EB7BF23F0004300230122CA
:104FF0000593A8BF3360059F974BB8BF3260BB4392
:1050000012D142F20F73139A1360C7F313032343B1
:1050100000F04685239BDFF854A2002B00F0488562
:105020000AF1030300F042BD9DED047B0022002342
:1050300051EC170B8DED0C7B02F09AFC804658B1B9
:105040000123139A1360239B13B1844B239A13609B
:10505000DFF81CA200F02CBDC7F30A5616AA17A948
:1050600058469DED0C0B01F077F98146002E75D066
:105070000D9BA6F2FF36CDF85080C3F3130343F027
:105080007F53DDE90C0143F4401319460022744BB1
:10509000FEF718FD68A3D3E9002302F001FA68A324
:1050A000D3E90023FEF710FD04460D463046FEF717
:1050B00057FE65A3D3E9002302F0F2F902460B463E
:1050C00020462946FEF700FD04460D4602F098FCF6
:1050D0000022074600232046294602F053FC40B137
:1050E0003846FEF73DFE22462B4602F041FC00B951
:1050F000013F162F51D85B4B03EBC703DDE90C01D1
:10510000D3E9002302F03EFC002848D0013F0023F1
:105110001293169B9B1B5A1E46BFC3F10108002326
:105120004FF00008089248BF0893002F39DB089B16
:105130000F973B44089300230A93099B092B61D8DE
:10514000052BC5BF043B002401240993099B023BA6
:10515000032B63D8DFE803F05254372CDDE91663E4
:105160001E4406F23243202BC9BFC3F14003C3F1F2
:1051700020039F4006F21243D8BF04FA03F006F161
:10518000FF36C4BF24FA03F347EA0300FEF7D8FD55
:105190000122A1F1F873149277E70123B8E7129086
:1051A000B7E77B42A8EB07080A9300230F93C4E7F5
:1051B00001230B930E9BFB1800930133012B0393E8
:1051C000B8BF012306E001230B930E9B002B28DDC3
:1051D00000930393DBF81C000021042202F1140564
:1051E0009D4223D94160584600F08CFD824600283C
:1051F00040D11D4B024640F2AF11DCE60023E3E74D
:105200000023D6E7012400230B9409934FF0FF33CA
:1052100000220093039312230E92DBE701230B93EA
:10522000F4E701231A4600930393F5E70131520096
:10523000D4E700BFAFF3008061436F63A787D23F1D
:10524000B3C8608B288AC63FFB799F501344D33F75
:10525000E1A10000F8A100000000F07FE4A200003E
:105260000000F83F28A3000051A20000DDA10000CB
:10527000E3A20000DBF81C301860039B0E2B00F249
:10528000A180002C00F09E80002F33DD07F00F027C
:105290009B4BF8054FEA271403EBC20393ED007B09
:1052A0008DED067B16D5974B04F00F040326D3E94A
:1052B0000823DDE90C0102F01DFACDE90401914D4E
:1052C00054B9DDE90623DDE9040102F013FACDE962
:1052D000040128E00226F2E7E10708D50136DDE9FE
:1052E0000601D5E9002302F0DBF8CDE906016410E0
:1052F0000835E5E700F0AF807C42814B814D022606
:1053000004F00F02241103EBC203DDE90C01D3E921
:10531000002302F0C5F80023CDE90401002C40F081
:105320008F80002BD3D1129BDDE90445002B00F0C8
:1053300094800022744B2046294602F023FB00286B
:1053400000F08B80039B002B00F08780009B002BDC
:1053500034DD7B1E204600222946069301366B4B26
:1053600002F09EF8009CCDE904013046FEF7F8FCFF
:10537000DDE9042302F094F80022654BFEF7A4FB5C
:105380000546A1F15076002C6AD10022614BDDE97F
:105390000401FEF797FB02460B46CDE904232A469B
:1053A000334602F00DFB002840F087822A4606F1C2
:1053B0000043DDE9040102F0E5FA38BBDDE90C3415
:1053C000CDE90434179B002BC0F258810E2F00F357
:1053D00055814B4B03EBC70393ED007B0E9B002BDA
:1053E0008DED007B80F2E580039B002B00F3E180D4
:1053F0000CD10022474B51EC170B02F051F8DDE9BC
:10540000042302F0D3FA002800F055820024254638
:105410000E9B5646DB43069300272146584600F074
:10542000B1FC002D00F0BD802FB1AF4203D0394652
:10543000584600F0A7FC2946584600F0A3FCB0E00F
:10544000E20705D50136D5E9002302F029F801234A
:105450006410083562E7022665E7039C069784E737
:10546000274B0B9903EBC403544453E9022300294F
:1054700054D00020284902F03DF9334656462A46CA
:10548000FEF720FBCDE91001DDE9040102F0B8FAD6
:105490000546FEF765FC02460B463035DDE90401A2
:1054A000FEF710FB02460B4606F8015BCDE904232C
:1054B000DDE9102302F066FA002872D100201249BB
:1054C000DDE90423FEF7FEFADDE9102302F05AFAC3
:1054D000002840F0B480A6423FF470AF00220B4B8E
:1054E000DDE9100101F0DCFF0022084BCDE91001DD
:1054F000DDE9040101F0D4FFCDE90401C4E700BFF8
:1055000028A3000000A300000000F03F000024409A
:1055100000001C40000014400000E03F31465646A9
:10552000284601F0BDFF1594CDE91001DDE9040125
:1055300002F066FA0546FEF713FC024630350B46CC
:10554000DDE90401FEF7BEFA06F8015B02460B46F0
:10555000A642CDE904234FF0000224D1AB4BDDE994
:105560001001FEF7B1FA02460B46DDE9040102F034
:1055700027FA002863D10020A449DDE91023FEF7B3
:10558000A1FA02460B46DDE9040102F0FBF900280E
:105590003FF414AF159E731E159316F8013C302B83
:1055A000F8D0069F3BE09A4B01F07AFFCDE9040169
:1055B000BCE7DDE90445564620462946DDE90023DF
:1055C00002F098F802F01CFA8046FEF7C9FBDDE90C
:1055D000002301F065FF0246204608F130040B4627
:1055E0002946FEF76FFA039D06F8014BA6EB0A0465
:1055F00002460B46A54234D1FEF766FA04460D4634
:10560000DDE9002302F0DCF9C0B920462946DDE9D6
:10561000002302F0ADF910B118F0010F0ED1494688
:10562000584600F0AFFB002301373370139B1F6017
:10563000239B002B00F03C821E6039E20697334624
:105640001E4613F8012D392A07D19A45F8D1069A3A
:105650000132069230228AF800201A7801321A703C
:105660009FE700226A4B01F01BFF00220023044643
:105670000D4602F07DF900289ED0D0E70B9A002A53
:1056800000F0E180099A012A00F3C480149A002AEC
:1056900000F0B78003F233430A9C4646089A012182
:1056A000584698441A44089200F022FC05465EB120
:1056B000089B002B08DDB342089AA8BF3346A8EB2D
:1056C0000308F61AD31A08930A9BF3B10B9B002B1D
:1056D00000F0BD808CB129462246584600F0C2FC3D
:1056E0004A4601460546584600F018FC49460690D1
:1056F000584600F047FB069B99460A9B1A1B04D0AC
:105700004946584600F0AEFC81460121584600F05B
:10571000EFFB0F9B0446002B00F0CE811A4601469A
:10572000584600F09FFC099B0446012B00F395802E
:10573000049B002B40F08D80059BC3F31303002BCB
:1057400040F08980059B23F000431B0D1B052BB106
:10575000089B08F101080133089301230A930F9B6A
:10576000002B00F0AF81236904EB8303186900F07C
:1057700073FBC0F12000089B184410F01F0077D085
:10578000C0F12003042B6BDDC0F11C00089B80449A
:10579000034406440893B8F1000F05DD494642462C
:1057A000584600F0B9FC8146089B002B05DD2146D8
:1057B0001A46584600F0B0FC0446129B002B59D004
:1057C0002146484600F014FD002853DA7B1E494666
:1057D0000A2258460693002300F0F6FA0B9B8146F6
:1057E000002B00F07181002329460A22584600F060
:1057F000EBFA009B0546002B67DC099B022B41DC82
:1058000063E0169BC3F1360346E700BF0000E03FAC
:1058100000002440039B5C1E0A9BA34209DB1C1B67
:10582000039B002BBFF639AF039BA8EB03060023B5
:1058300034E70A9B46460F9AE31A0A9400241A4456
:10584000039B0F922AE70A9C46460B9D2FE70A9A74
:1058500056E7002382E7049B80E700230A9382E750
:1058600099D01C33089A1A4498441E44089292E72F
:105870000346F6E7039B0697002B20DC0093099B69
:10588000022B1EDD009B002B7FF4C2AD21460522BA
:10589000584600F099FA01460446484600F0A8FC34
:1058A00000287FF7B5AD3123564606F8013B069B2D
:1058B00001330693B0E5039C06972546F3E7039B67
:1058C00000930B9B002B00F00381002E05DD294681
:1058D0003246584600F020FC05460A9B002B5AD061
:1058E0006968584600F00EFA064628B9834B02460E
:1058F00040F2EF21FFF75FBB2A6905F10C010C3084
:1059000002329200FFF79BFA01223146584600F01E
:1059100003FC0AF101032F4605460393009B534401
:105920000B93049B03F001030A93039B2146484613
:10593000013B0093FFF798FA3946049000F13008D4
:10594000484600F055FC2A4608902146584600F08B
:105950006BFCC268064602BB0146484600F048FCA4
:105960000246314658460E9200F00CFA099B0E9AF8
:10597000039E42EA03010A9B194310D1B8F1390F83
:1059800029D0089B002B02DD049B03F13108009B0A
:1059900083F8008041E52846BBE70122E1E7089B48
:1059A000002B04DB09990B430A990B4320D1002AF1
:1059B000EDDD49460122584600F0AEFB2146814606
:1059C00000F016FC002803DCE1D118F0010FDED056
:1059D000B8F1390FD8D13923009A137033461E46D7
:1059E000013B16F8012C392A51D001321A7014E506
:1059F000002A07DDB8F1390FEDD008F10103009A54
:105A000013700AE5039B0B9A03F8018C934228D08C
:105A1000494600230A22584600F0D6F9AF42814693
:105A20004FF000034FF00A023946584607D100F004
:105A3000CBF907460546039B0133039375E700F056
:105A4000C3F92946074600230A22584600F0BCF94C
:105A50000546F0E7009B0027002BCCBF1E46012621
:105A6000564449460122584600F056FB21468146DD
:105A700000F0BEFB0028B1DC02D118F0010FADD15F
:105A800033461E4613F8012D302AFAD0C5E49A4554
:105A9000A5D1069B0133069331238AF80030BCE47C
:105AA000239BDFF85CA01BB10AF10803239A136063
:105AB000504619B0BDE8F08F099B012B7FF738AE37
:105AC0000F9B0A93012056E6009B002B7FF7D7AE71
:105AD000564621464846FFF7C7F900F13008009BBB
